:020000040000FA
:10000000B8440020150200001D0200001F0200007D
:100010002102000023020000250200000000000071
:1000200000000000000000000000000027020000A7
:1000300029020000000000002B0200002D02000039
:100040002F0200002F0200002F0200002F020000EC
:100050002F0200002F020000FD0200002F0200000E
:10006000D9050000010600002F0200002F02000049
:100070002F0200002F0200002F0200002F020000BC
:100080002F0200002F0200002F0200002F020000AC
:100090002F0200002F0200002F0200002F0200009C
:1000A0002F0200002F0200002F0200002F0200008C
:1000B0002F0200002F0200000000000000000000DE
:1000C0002F0200002F0200002F0200002F0200006C
:1000D0002F0200002F0200002F0200002F0200005C
:1000E0002F0200002F0200002F020000000000007D
:1000F000000000002F020000000000002F0200009E
:1001000000000000000000000000000000000000EF
:1001100000000000000000000000000000000000DF
:1001200000000000000000000000000000000000CF
:1001300000000000000000000000000000000000BF
:1001400000000000000000000000000000000000AF
:10015000000000000000000000000000000000009F
:10016000000000000000000000000000000000008F
:10017000000000000000000000000000000000007F
:10018000000000000000000000000000000000006F
:10019000000000000000000000000000000000005F
:1001A000000000000000000000000000000000004F
:1001B000000000000000000000000000000000003F
:1001C000000000000000000000000000000000002F
:1001D000000000000000000000000000000000001F
:1001E000000000000000000000000000000000000F
:1001F00000000000000000000000000000000000FF
:10020000DFF80CD000F068F800480047D911000072
:10021000B84400200648804706480047FEE7FEE74E
:10022000FEE7FEE7FEE7FEE7FEE7FEE7FEE7FEE7A6
:1002300059030000010200002DE9F05F054600208F
:1002400092469B4688460646814640241BE0284647
:1002500041464746224600F02FF853465A46C01AF8
:10026000914110D311461846224600F016F82D1A77
:1002700067EB01084F4622460120002100F00DF8EF
:1002800017EB00094E41201EA4F10104DFDC4846B3
:1002900031462A464346BDE8F09F202A04DB203A37
:1002A00000FA02F1002070479140C2F1200320FAC9
:1002B00003F3194390407047202A04DB203A21FAC7
:1002C00002F00021704721FA02F3D040C2F120026F
:1002D0009140084319467047064C074D06E0E06818
:1002E00040F0010394E8070098471034AC42F6D37D
:1002F000FFF78AFF64180000841800002DE9F0471A
:100300001148D0F87C1100291CD00021C0F87C11C4
:100310000E4E3568DFF83890DFF838800C4601273C
:1003200059F8240020280AD207FA00F0284206D003
:100330003060D8F8001000291CBFE0B28847641C68
:10034000042CEDD3BDE8F08700600040200500508C
:10035000541800006400002010B44FF080520023B5
:10036000D2E94C10082909D14FF0804CCCF80C315F
:10037000CCF81031DFF8D4C1CCF80030082965D1B1
:10038000734B1B68DFF8CCC1CCF80030724B1B6894
:100390000CF1040CCCF80030704B1B680CF1040C11
:1003A000CCF800306E4B1B680CF1040CCCF800301C
:1003B0006C4B1B680CF1040CCCF800306A4B1B68CA
:1003C0000CF1040CCCF80030684B1B68DFF8A0C1BE
:1003D000CCF80030674B1B680CF1040CCCF80030F3
:1003E000654B1B680CF1040CCCF80030634B1B68A8
:1003F0000CF1040CCCF80030614B1B680CF1040CC0
:10040000CCF800305F4B1B680CF1040CCCF80030CA
:100410005D4B1B68DFF874C1CCF800305C4B1B6887
:100420000CF1040CCCF800305A4B1B680CF1040C96
:10043000CCF80030584B1B680CF1040CCCF80030A1
:10044000564B1B680CF1040CCCF80030082908BF8F
:100450005FEA000304D1DFF84CC1514BCCF8003007
:10046000082908BF5FEA000304D1DFF83CC1FB2381
:10047000CCF80030082908BF5FEA000308D14B4BD5
:1004800092F85842D3F800C064F3030CC3F800C0DC
:10049000082908BF5FEA000305D1DFF814C14FF453
:1004A0000073CCF80030082907D14248016811F0E8
:1004B000010F1CBF6FF0010101603F48016841F46A
:1004C00070010160BFF34F8FBFF36F8FD2E94C1003
:1004D0004FF01022082905D1042803D9D2F80802C8
:1004E00036490860D2F8000210F0004F04BFD2F87D
:1004F000040210F0004F24D0314B01201860314825
:1005000001680029FCD04FF0120CC2F800C201684B
:100510000029FCD0C2F804C201680029FCD00021E7
:10052000196001680029FCD0BFF34F8F264801688D
:10053000264A01F4E06111430160BFF34F8F00BF11
:10054000FDE724492248086010BC70473805004088
:100550000404001020C50040080400100C04001022
:100560001004001014040010180400101C040010E3
:1005700040C500402004001024040010280400108E
:100580002C040010300400103404001060C500403A
:10059000380400103C040010400400104404001013
:1005A000488103008C56004018F50040E40E0040DE
:1005B000409602400004004088ED00E058050040ED
:1005C00004E5014000E401400CED00E00400FA0500
:1005D0000090D00368000020074810B5D0F8401103
:1005E000002907D00021C0F84011044840680028C5
:1005F00018BF804710BD0000008000405C00002054
:100600000648D0F84011002906D00021C0F840115A
:1006100003480168491C01607047000000900040D9
:100620005C00002002E008C8121F08C1002AFAD1AD
:1006300070477047002001E001C1121F002AFBD162
:10064000704700002DE9F047E54D80460C462878BC
:10065000012810D1B8F1020F18BFB8F1080F0AD164
:100660004FF0000242F21071104601F0ABF8002288
:10067000032100F06BFF2878012628B34FF0000A11
:1006800001286FD0022818BFBDE8F087B8F1020F2B
:1006900000F07D81B8F1080F00F09281B8F1070FEA
:1006A0000CBF322CBDE8F08700F0BEFD85F800A03D
:1006B000C8224FF4FA71002001F084F8BDE8F04739
:1006C000C822062100F042BFB8F1060F2ED0B8F1C3
:1006D000020F18BFBDE8F087022C14BF032CBDE841
:1006E000F087002C1CBF012CBDE8F0874FF0C8023A
:1006F0004FF006014FF0000000F028FF0124E0B2A7
:10070000002100F0ADFA641C042CF8DD2E7000F01E
:100710008BFD4FF47A7164220020696101F052F878
:10072000BDE8F0476422062100F010BFC82C18BFB6
:10073000BDE8F0870021A87800F092FAA87801219E
:1007400000F00300401CA87000F08AFAC8224FF4A1
:10075000FA71002001F036F8BDE8F047C822062102
:1007600000F0F4BEDFF87C929F4FB8F1020F0DD07D
:10077000B8F1060F0CBF642CBDE8F08728691E286D
:1007800034D3BDE8F047012000F016BB022C18BF9F
:10079000032C00F0F780012C88BFBDE8F08706FA33
:1007A00004F0C4B299F80000002818BF204200F0FD
:1007B000DA8000F0BDFAD5E90623801A61EB030167
:1007C0004FF47A720023FFF737FDF8626969002958
:1007D00008BF56467ED064225043B0FBF1F00A2891
:1007E00079D8386A401C3862022693E0A86810F174
:1007F000050F71DB99F8000020B17869401C786121
:10080000C7F818A099F8010089F8000099F80200CB
:1008100089F80100642000F035F96978012905D0D4
:10082000022906D00F2809D2002010E0322807D86C
:100830000CE01428F8D33C2802D307E02D2801D27D
:10084000012004E04B2828BF032000D2022089F8B1
:10085000020000F00101012000F002FA99F8020004
:10086000C0F34001022000F0FBF999F8010000F00C
:100870000101032000F0F4F999F80100C0F34001F0
:10088000042000F0EDF959492869A1FB00218908ED
:10089000494201EB8101C14216D1A8B16878401CE0
:1008A000C0B26870042884BF042068700BD395ED33
:1008B000050AB8EE400ADFED4E0A20EE200ABCEE33
:1008C000C00A85ED050A387200F032FAC5E9060162
:1008D000286902E01EE00EE054E0401C2861F86048
:1008E00064220020696900F06DFFBDE8F0476422D2
:1008F000062100F02BBE142803D8786A401C7862C9
:1009000008E0282888BF4FF0FF3603D8B86A401C9B
:10091000B8625646A8683044A86099F80010A14310
:1009200089F8001038603869401C3861B869401C8B
:10093000B861B869F96988428CBFB869F869F8612B
:10094000B96BFA6BF86AC317081842EB0301B86376
:10095000F963386980B13A69B86BF96B0023FFF726
:100960006BFC386308E0A868401EA86038607869AE
:10097000401C7861C7F818A0A86810F1050FA8BF3F
:10098000BDE8F0870020BDE8F04700F015BA022C62
:100990001CBF032CBDE8F0874FF032024FF0070177
:1009A0004FF0000000F0D2FD322240F6B8310020B6
:1009B00000F008FFBDE8F0473222072100F0C6BD75
:1009C000022C1CBF032CBDE8F0874FF03202BDE8BB
:1009D000F0474FF007014FF0000000F0B7BD0000F6
:1009E000380000203B00002078040020CDCCCCCC87
:1009F0006666663F134810B500210170C160124A57
:100A00000121062000F06CFD0F4A0121022000F0B8
:100A100067FD0D4A0121082000F062FD0A4A01210C
:100A2000072000F05DFD00F0FFFBC8224FF4FA71D3
:100A3000002000F0C7FEC822BDE81040062100F0EB
:100A400085BD0000380000204506000072B67047E2
:100A500010B5FFF7FBFF02490868421C0A6010BD91
:100A60005800002003490868401E086018BF7047FE
:100A700000F0D6B95800002000F0D4B900F0DAB97F
:100A800000F0EAB9002808BF704710B5044600F02E
:100A9000F1F9B0FBF4F104FB110010BD2DE9F041B8
:100AA000CCB2042C28BFBDE8F081314EF51C0228E1
:100AB0000DD0295D00272F4801291AD0022938D0EE
:100AC00003291FD02046BDE8F04100F03FBA285D61
:100AD000002818BFBDE8F08122465021002000F018
:100AE00071FE2246B17800F031FD01202855BDE8A5
:100AF000F08150F8240000F093FA214658B1B26812
:100B000070789047204600F059FA204600F01EFA0F
:100B10002F55BDE8F081B2683078904722463221E7
:100B2000012000F04FFE2246B17800F00FFD0220B8
:100B30001AE050F8240000F073FA002808BFBDE85E
:100B4000F0812146B268707890472246B178002043
:100B500000F0FCFC22463221002000F033FE224649
:100B6000B17800F0F3FC03202855BDE8F0810000C7
:100B7000180000204418000010B51C460B46014622
:100B80000F488160037042700E4A8470002010701C
:100B900050709070D07001460B4A184600F0A0FCCF
:100BA000094A0021204600F09BFC084800F0E2F9C9
:100BB0000024204600F0CAF9641C042CF9DB10BDA7
:100BC000180000201B0000209D0A0000D10B00002F
:100BD00010B5044600F0A8F9034A214602209268A5
:100BE000BDE81040104700001800002010B5074C69
:100BF0002078002808BF10BD207900F05FF800F0D1
:100C00006BF92079BDE8104000F080B80C0000209E
:100C100010B5074C2078002808BF10BD207900F0DF
:100C20004DF800F07DF92079BDE8104000F06EB875
:100C30000C00002010B5044600F074F902480121B0
:100C400044600170084610BD0C0000200348826813
:100C5000002A08BF704700214068104700000020AC
:100C600010B508B1042801D9002010BD002914BF17
:100C700000210121044A02EB800050F8040C00F02E
:100C8000B1F9012010BD00002418000070B50A4E13
:100C9000012400BF06EB8405012155F8040C00F087
:100CA000D1F955F8040C012100F09CF9601CC4B284
:100CB000042CEFD9042070BD24180000002808BFC0
:100CC0007047042888BF70470021034A02EB800068
:100CD00050F8040C00F086B93418000070B50A4EC4
:100CE000012400BF06EB8405012155F8040C00F037
:100CF000A9F955F8040C002100F074F9601CC4B285
:100D0000042CEFD9042070BD34180000002808BF5F
:100D10007047042888BF70470121034A02EB800016
:100D200050F8040C00F05EB93418000000F0A0B9CF
:100D300009480078002802BF00200146704710B51E
:100D400000F0B2F9054A1268002A13BF0023002000
:100D50000146FFF771FA10BD000000206C00002072
:100D600010B5034800F0BAF902490120087010BD1F
:100D70006C000020000000200C4B93F800C0CCF168
:100D8000000C1CEA010F08BF704730B44FF47A74AE
:100D9000DFF81CC06043DCF800C0C3E9012130BCAF
:100DA0000CFB00F0034900F0D3B900000000002064
:100DB0006C0000204D0C000070B5174D0646022057
:100DC000287064220621002000F0C0FB0124E0B25C
:100DD0000021FFF745FF641C042CF8DD002E18BF2E
:100DE00001240FD0E0B20121FFF73AFF641C042C6C
:100DF000F8DDD5E902018842D8BF70BD0749E86037
:100E0000486070BD01210846FFF72AFFBDE8704029
:100E100001210420FFF724BF3800002078040020BF
:100E200062B6704702490148086070473546526E05
:100E3000000601404FF0FF3101EBC030044908606B
:100E40000120091D0860091D0860024908607047FB
:100E50000405014000000140044801214160044AAA
:100E600011608A1EC0F808230160704700D000405E
:100E700004D5004016484FF0000C6246C0F800C18F
:100E8000D0F800110029FBD0124B1968C0F80021DE
:100E9000C9B241EA0C0C00BFD0F800110029FBD008
:100EA0001968C0F80021C9B24CEA012CD0F8001131
:100EB0000029FBD01968C0F80021C9B24CEA014CE6
:100EC000D0F800110029FBD018684CEA0060704788
:100ED00000D0004008D500400A494FF4F0300860C7
:100EE0000A4909480860091D086009490860091D88
:100EF000086009490748086008490120086020BFC8
:100F0000FEE70000080500500C0003002C0700500D
:100F10006007005000180003200500500005004045
:100F200030BF704770470000042828BF704706494B
:100F300051F82000202828BF70470C21800000F1C4
:100F4000A040C0F80017704754180000042828BFBC
:100F50007047064951F82000202828BF70470449EF
:100F6000800000F1A040C0F800177047541800003E
:100F70000C0003000D4908600D490C20C1F8000762
:100F8000091DC1F800070B49C1F80007091DC1F888
:100F9000000709494007C1F804034FF0E021402051
:100FA000C1F880028431C8677047000064000020E7
:100FB0002C0000506000005000600040042828BF52
:100FC0007047064951F82000202828BF70470121AA
:100FD00001FA00F002490860704700005418000050
:100FE000200500501F288CBF074A4FF0A04200F098
:100FF0001F00012303FA00F000290CBFC2F80C0502
:10100000C2F80805704700000003005002490020A4
:101010000860024908607047140500501408005029
:101020001F288CBF06494FF0A04100F01F0001228D
:10103000D1F8101502FA00F0084018BF01207047DF
:10104000000300501F288CBF084A4FF0A04200F058
:101050001F00012303FA00F0002904BFC2F81C0599
:101060007047012908BFC2F81805704700030050F7
:10107000084A012108201060074A03201060074A2F
:1010800000201060064B04221A601A1D10600548EB
:10109000016070471805005060C5014004C501405B
:1010A0000CC5014000C50140094B10B40120586433
:1010B000DFF820C0DCF80010074A14685864DCF838
:1010C0000000884238BF1168002110BC7047000042
:1010D00000900040449500405C000020164930B468
:1010E00001224A60CA60DFF854C00023CCF8003007
:1010F000134C4FF0030CC4F800C0DFF848C0CCF824
:101100000030114C4FF0FF3CC4F800C01404C1F88B
:1011100004434FF0E0254C15C5F80041C1F800220A
:101120000A4C23600A601021016020210171C0F87F
:1011300008C030BC7047000000900040049500409B
:101140000895004010950040409500405C0000204C
:10115000F0B41B4B01225A604FF0E02514024FF00F
:10116000000CC5F88041BFF34F8FBFF36F8F154E52
:1011700071605A60DA60C8B1134EC6F800C0134FF0
:1011800003263E60124EC6F800C0DFF848C0401E7D
:10119000CCF800001004C3F80403C3F800220029AF
:1011A0001FBFC5F800411A60F0BC70475A60C5F80F
:1011B0008041BFF34F8FBFF36F8FF0BC70470000CB
:1011C000008000405C00002004850040088500404D
:1011D0001085004040850040FFF7C2FDFFF716FF75
:1011E0000420FFF727FDFFF779FDFFF79FFDFFF7CD
:1011F0004DFD012000F0D6F8032000F0FBF801229D
:101200000849042000F0ECFA0423082202210548D2
:10121000FFF7B2FC0020FFF733FCFFF7EBFB00F019
:1012200021F9FEE799120000194910B54A6800201B
:10123000086048608860C860086148618861C8616A
:10124000086248628862C862086348638863C8634A
:101250004A6001220A720862486288620D49886009
:1012600008614A704FF47A724A61C91C01240870FF
:1012700048708870E0B20021FFF7F2FC641C042C77
:10128000F8DD32220721BDE81040002000F05EB9F1
:1012900078040020380000201F4A1278002A08BF76
:1012A00070472DE9F041C4B264F307060D46FFF71D
:1012B0003FFD07468846FFF7CBFB184AD2F80C02E1
:1012C000401CC2F80C02D2F80C02202806D992F871
:1012D0000002FFF71BFDFFF7C5FBFEE792F80802CF
:1012E000D2F80C120844401E00F01F0002EB001060
:1012F000092CC0E90065C0E9027809482CBF0168E3
:1013000050F8241001F101012CBF016040F82410B5
:10131000BDE8F041FFF7A6BB1400002078000020D4
:10132000880200202DE9F05F14460D460646FFF7BF
:101330008FFB1B4BD3F80C0200282CD0D3F80802EB
:1013400003EB0011D1E9007AD1E90289C3F8040264
:10135000401C00F01F00C3F80802D3F80C02401E26
:10136000C3F80C02D3F80C0200280CBF0120D3F8FC
:101370000C0200F0FF0BFFF775FB002E18BF377053
:10138000002D18BFC5F800A0002C18BFC4E90089C3
:101390005846BDE8F09FFFF765FB0020BDE8F09FD1
:1013A0007800002006490022C1F80422C1F8082272
:1013B00081F80002C1F80C22024901200870704730
:1013C000780000201400002010B5022806D0032861
:1013D00018BF10BDBDE81040FFF708BC002242F264
:1013E0001071104600F0EEF90022BDE81040032114
:1013F00000F0ACB810B504460120FFF73FFB1648DB
:1014000000210A460460154CFF23A4F5907C625429
:101410000CEB4110491C026003718260037302618E
:101420000375826103770929F1DB0D4A002103204E
:1014300000F056F80A4A0121022000F051F8084A4B
:101440000121062000F04CF80121BDE81040044ABB
:10145000072000F045B8000024000020CC03002045
:10146000C9130000002284B042F21071104600F04F
:10147000A9F90022032100F069F8184D05F59076CE
:10148000FFF7E6FAFFF7F8FAFFF7ECFAFFF7E0FAF2
:101490000022694602A8FFF745FFD0B1FFF7E2FA44
:1014A0009DF808000928EBD2305C00240028E7DD15
:1014B0009DF8080005EB401151F83420002A1CBFAC
:1014C000009990479DF80800641C305CA042EFDC56
:1014D000D6E7FFF7C7FAFFF79BFBD1E7AC02002086
:1014E000092828BF7047002A08BF70472DE9F0413E
:1014F000134E345C042C07D31248006800281CBF2C
:10150000C0B2FFF703FCFEE7DFF83CC023460CEB5C
:10151000401C04E055E90278C5E900785B1E002B09
:1015200005DD0CEBC30515F8047C8F42F2D84CF8AE
:1015300033200CEBC3021171611C3154BDE8F08102
:10154000CC03002024000020AC0200202DE9F74F3E
:10155000814986B001F11406DDE9078791F800E0C2
:10156000CDF810E00A7D039291F82820029291F8BC
:101570003C20019291F85020009201F1280501F1E0
:101580003C0401F1500C91F864B001F1640391F84E
:1015900078A001F1780211F88C9FBEF1000F0DD0F8
:1015A000DFF8B4E19EF80CE0C64507D1DFF8A8E10A
:1015B000DEF810E0BE4508BF674F7CD0DDF80CE0D8
:1015C000BEF1000F0DD0DFF890E19EF820E0C64597
:1015D00007D1DFF884E1DEF824E0BE4508BF3746D6
:1015E0006ED0DDF808E0BEF1000F0DD0DFF868E145
:1015F0009EF834E0C64507D1DFF85CE1DEF838E05C
:10160000BE4508BF2F465BD0DDF804E0BEF1000FF9
:101610000DD0DFF844E19EF848E0C64507D1DFF879
:1016200038E1DEF84CE0BE4508BF274648D0DDF87B
:1016300000E0BEF1000F0DD0DFF81CE19EF85CE089
:10164000C64507D1DFF810E1DEF860E0BE4508BF0F
:10165000674635D0BBF1000F0DD0DFF8FCE09EF8F7
:1016600070E0C64507D1DFF8F0E0DEF874E0BE4573
:1016700008BF1F4624D0BAF1000F0DD0DFF8D8E024
:101680009EF884E0C64507D1DFF8CCE0DEF888E0BC
:10169000BE4508BF174613D0B9F1000F0FD0DFF8D1
:1016A000B8E09EF898E0C64509D1DFF8AC80D8F8DC
:1016B0009C80B84500E003E008BF0F4600D000273B
:1016C00008B13FB130E0002F1CBF0020387009B0D6
:1016D000BDE8F08FDDF810801F4FB8F1000F08BF94
:1016E00039461FD0039F002F08BF31461AD0029EF3
:1016F000002E08BF294615D0019D002D08BF2146A8
:1017000010D0009C002C08BF61460BD0BBF1000F2D
:1017100008BF194606D0BAF1000F0CBF1146B9F147
:10172000000F10D10F000ED001213970C10F797058
:1017300020F07F407860B860079838730898386167
:1017400009B0BDE8F08F0548806800281CBFC0B212
:10175000FFF7DCFAFEE70000D80300202800002095
:101760002DE9F047DFF8548098F80010884218BF40
:10177000BDE8F0870026124DB14600BF06EB860794
:1017800015F8270030B105EB8704A06838B1401E7A
:10179000A06004D0761C082EF0DBBDE8F087D8F8F6
:1017A000042012B1207B21699047607800281ABF7D
:1017B0006068A06005F82790ECE700002800002092
:1017C000D8030020030021F07F404FF0FE4101EAE2
:1017D000026141EA000018BF40F00040704700007D
:1017E00010B50D4C04234FF0000CC4E901100B4957
:1017F0001046227081F814C001F828CF5B1EF9D181
:10180000074A0021FFF76CFE22786168BDE81040AE
:101810000120FFF7B1BA000028000020C403002017
:10182000611700000D0000000E0000000F00000016
:10183000100000001C0000001D0000001E00000041
:101840001F0000000B0000000C000000180000004A
:10185000190000000B0000000C0000001800000040
:101860001900000084180000000000206C00000037
:1018700024060000F01800006C0000204C4400001A
:10188000340600000000000000000000000000001E
:101890000000000000000000000000000000000048
:1018A0000000000000000000000000000000000038
:1018B0000000000000000000000000000001010026
:1018C0000000000000000000000000000000000018
:1018D000E80300000000000000000000000000001D
:1018E0000000000000000000000000000090D00395
:0400000500000201F4
:00000001FF
