:020000040000FA
:1000000098440020150200001D0200001F0200009D
:100010002102000023020000250200000000000071
:1000200000000000000000000000000027020000A7
:1000300029020000000000002B0200002D02000039
:100040002F0200002F0200002F0200002F020000EC
:100050002F0200002F020000FD0200002F0200000E
:10006000F1050000190600002F0200002F02000019
:100070002F0200002F0200002F0200002F020000BC
:100080002F0200002F0200002F0200002F020000AC
:100090002F0200002F0200002F0200002F0200009C
:1000A0002F0200002F0200002F0200002F0200008C
:1000B0002F0200002F0200000000000000000000DE
:1000C0002F0200002F0200002F0200002F0200006C
:1000D0002F0200002F0200002F0200002F0200005C
:1000E0002F0200002F0200002F020000000000007D
:1000F000000000002F020000000000002F0200009E
:1001000000000000000000000000000000000000EF
:1001100000000000000000000000000000000000DF
:1001200000000000000000000000000000000000CF
:1001300000000000000000000000000000000000BF
:1001400000000000000000000000000000000000AF
:10015000000000000000000000000000000000009F
:10016000000000000000000000000000000000008F
:10017000000000000000000000000000000000007F
:10018000000000000000000000000000000000006F
:10019000000000000000000000000000000000005F
:1001A000000000000000000000000000000000004F
:1001B000000000000000000000000000000000003F
:1001C000000000000000000000000000000000002F
:1001D000000000000000000000000000000000001F
:1001E000000000000000000000000000000000000F
:1001F00000000000000000000000000000000000FF
:10020000DFF80CD000F068F8004800472D1200001D
:10021000984400200648804706480047FEE7FEE76E
:10022000FEE7FEE7FEE7FEE7FEE7FEE7FEE7FEE7A6
:1002300071030000010200002DE9F05F0546002077
:1002400092469B4688460646814640241BE0284647
:1002500041464746224600F02FF853465A46C01AF8
:10026000914110D311461846224600F016F82D1A77
:1002700067EB01084F4622460120002100F00DF8EF
:1002800017EB00094E41201EA4F10104DFDC4846B3
:1002900031462A464346BDE8F09F202A04DB203A37
:1002A00000FA02F1002070479140C2F1200320FAC9
:1002B00003F3194390407047202A04DB203A21FAC7
:1002C00002F00021704721FA02F3D040C2F120026F
:1002D0009140084319467047064C074D06E0E06818
:1002E00040F0010394E8070098471034AC42F6D37D
:1002F000FFF78AFF98180000B81800001748D0F8D8
:100300007C11002908BF70472DE9F0470021C0F893
:100310007C11134E3768134D0C462878002898BF7F
:10032000BDE8F087DFF840A0DFF840904FF001080B
:100330005AF8240020280AD208FA00F0384206D0E1
:100340003060D9F8001000291CBF20468847601C87
:10035000C4B228788442EBD3BDE8F0870060004047
:1003600020050050641800005418000064000020AC
:1003700010B44FF080520023D2E94C10082909D163
:100380004FF0804CCCF80C31CCF81031DFF8D4C1F0
:10039000CCF80030082965D1734B1B68DFF8CCC15D
:1003A000CCF80030724B1B680CF1040CCCF8003018
:1003B000704B1B680CF1040CCCF800306E4B1B68C2
:1003C0000CF1040CCCF800306C4B1B680CF1040CE5
:1003D000CCF800306A4B1B680CF1040CCCF80030F0
:1003E000684B1B68DFF8A0C1CCF80030674B1B6876
:1003F0000CF1040CCCF80030654B1B680CF1040CBC
:10040000CCF80030634B1B680CF1040CCCF80030C6
:10041000614B1B680CF1040CCCF800305F4B1B687F
:100420000CF1040CCCF800305D4B1B68DFF874C194
:10043000CCF800305C4B1B680CF1040CCCF800309D
:100440005A4B1B680CF1040CCCF80030584B1B685D
:100450000CF1040CCCF80030564B1B680CF1040C6A
:10046000CCF80030082908BF5FEA000304D1DFF8A8
:100470004CC1514BCCF80030082908BF5FEA00039B
:1004800004D1DFF83CC1FB23CCF80030082908BFB9
:100490005FEA000308D14B4B92F85842D3F800C0F2
:1004A00064F3030CC3F800C0082908BF5FEA000327
:1004B00005D1DFF814C14FF40073CCF800300829DF
:1004C00007D14248016811F0010F1CBF6FF0010114
:1004D00001603F48016841F470010160BFF34F8F34
:1004E000BFF36F8FD2E94C104FF01022082905D1CD
:1004F000042803D9D2F8080236490860D2F800026D
:1005000010F0004F04BFD2F8040210F0004F24D0C6
:10051000314B01201860314801680029FCD04FF0B0
:10052000120CC2F800C201680029FCD0C2F804C253
:1005300001680029FCD00021196001680029FCD065
:10054000BFF34F8F26480168264A01F4E06111434A
:100550000160BFF34F8F00BFFDE7244922480860C8
:1005600010BC7047380500400404001020C500404E
:10057000080400100C0400101004001014040010F3
:10058000180400101C04001040C500402004001096
:1005900024040010280400102C0400103004001063
:1005A0003404001060C50040380400103C04001002
:1005B0004004001044040010488103008C560040A1
:1005C00018F50040E40E0040409602400004004050
:1005D00088ED00E05805004004E5014000E40140DA
:1005E0000CED00E00400FA050090D0036800002044
:1005F000074810B5D0F84011002907D00021C0F8F5
:10060000401104484068002818BF804710BD000012
:10061000008000405C0000200648D0F8401100290E
:1006200006D00021C0F8401103480168491C016050
:1006300070470000009000405C00002002E008C805
:10064000121F08C1002AFAD170477047002001E04C
:1006500001C1121F002AFBD1704700002DE9F047AD
:10066000E64D07460C46287801280ED1022F18BF08
:10067000082F0AD14FF0000242F21071104601F02B
:10068000B9F80022032100F079FF28784FF0010823
:1006900010B34FF0000A01286BD0022818BFBDE844
:1006A000F087022F00F08181082F00F09781072F3B
:1006B0000CBF322CBDE8F08700F0E0FD85F800A00B
:1006C000C8224FF4FA71002001F094F8BDE8F04719
:1006D000C822062100F052BF062F2ED0022F18BFCD
:1006E000BDE8F087022C14BF032CBDE8F087002C76
:1006F0001CBF012CBDE8F0874FF0C8024FF0060187
:100700004FF0000000F03AFF0124E0B2002100F0B9
:10071000B5FA641C042CF8DD85F8008000F0AEFD0D
:100720004FF47A7164220020696101F063F8BDE83A
:10073000F0476422062100F021BFC82C18BFBDE895
:10074000F0870021A87800F099FAA878012100F03C
:100750000300401CA87000F091FAC8224FF4FA710F
:10076000002001F047F8BDE8F047C822062100F05C
:1007700005BFDFF88C92A34E022F0CD0062F0CBFC2
:10078000642CBDE8F08728691E283BD3BDE8F047FC
:10079000012000F01FBB022C18BF032C00F00081C9
:1007A000012C88BFBDE8F08708FA04F0C4B299F8BC
:1007B0000000002818BF204206D1A868A0F101005F
:1007C000A860306000F0E1B800F0C0FAD5E9062377
:1007D000801A61EB03014FF47A720023FFF72CFDBE
:1007E000F0626969002908BFD0467DD06422504379
:1007F000B0FBF1F00A2878D8306A401C30624FF024
:10080000020896E0A86810F1050F6FDB99F8001058
:1008100039B1401EA86030607069401C7061C6F834
:1008200018A099F8010089F8000099F8020089F8E9
:100830000100642000F034F96978012905D002290B
:1008400006D00F2809D2002010E0322807D80CE08B
:100850001428F8D33C2802D307E02D2801D2012028
:1008600004E04B2828BF032000D2022089F80200B0
:1008700000F00101012000F001FA99F80200C0F334
:100880004001022000F0FAF999F8010000F001019E
:10089000032000F0F3F999F80100C0F340010420AF
:1008A00000F0ECF958492869A1FB00218908494268
:1008B00001EB8101C14216D1A8B16878401CC0B2D9
:1008C0006870042884BF042068700BD395ED050A76
:1008D000B8EE400ADFED4D0A20EE200ABCEEC00A59
:1008E00085ED050A307202E023E013E058E000F0E5
:1008F0002DFAC5E906012869401C2861F0606422D0
:100900000020696900F076FFBDE8F0476422062107
:1009100000F034BE142803D8706A401C706208E0EE
:10092000282888BF4FF0FF3803D8B06A401CB06257
:10093000D046A8684044A86099F80010A14389F8FF
:1009400000103060B8F1000F1FDB3069401C3061CF
:10095000B069401CB061B069F16988428CBFB06970
:10096000F069F061B16BF26BF06AC317081842EBE3
:100970000301B063F163306960B13269B06BF16B50
:100980000023FFF759FC306304E07069401C70617C
:10099000C6F818A0A86810F1050FA8BFBDE8F08739
:1009A0000020BDE8F04700F015BA022C1CBF032C54
:1009B000BDE8F0874FF032024FF007014FF0000022
:1009C00000F0DCFD322240F6B831002000F012FFCA
:1009D000BDE8F0473222072100F0D0BD022C1CBF39
:1009E000032CBDE8F0874FF03202BDE8F0474FF02E
:1009F00007014FF0000000F0C1BD000038000020EA
:100A00003B00002058040020CDCCCCCC6666663F6D
:100A1000134810B500210170C160124A012106205F
:100A200000F076FD0F4A0121022000F071FD0D4A11
:100A30000121082000F06CFD0A4A0121072000F086
:100A400067FD00F01BFCC8224FF4FA71002000F093
:100A5000D1FEC822BDE81040062100F08FBD000085
:100A6000380000205D06000072B6704710B5FFF731
:100A7000FBFF02490868421C0A6010BD58000020B4
:100A800003490868401E086018BF704700F0D6B9D7
:100A90005800002000F0D4B900F0DAB900F0EAB94B
:100AA000002808BF704710B5044600F0F1F9B0FB0C
:100AB000F4F104FB110010BD2DE9F041CCB2042C7F
:100AC00028BFBDE8F081314EF51C02280DD0295D0C
:100AD00000272F4801291AD0022938D003291FD016
:100AE0002046BDE8F04100F047BA285D002818BF55
:100AF000BDE8F08122465021002000F07BFE224616
:100B0000B17800F03BFD01202855BDE8F08150F898
:100B1000240000F0AFFA214658B1B26870789047CF
:100B2000204600F071FA204600F026FA2F55BDE865
:100B3000F081B2683078904722463221012000F0DF
:100B400059FE2246B17800F019FD02201AE050F853
:100B5000240000F08FFA002808BFBDE8F08121468C
:100B6000B268707890472246B178002000F006FD08
:100B700022463221002000F03DFE2246B17800F0EE
:100B8000FDFC03202855BDE8F0810000180000207E
:100B90008818000010B51C460B4601460F488160BE
:100BA000037042700E4A8470002010705070907074
:100BB000D07001460B4A184600F0AAFC094A0021F1
:100BC000204600F0A5FC084800F0F0F9002420467B
:100BD00000F0D2F9641C042CF9DB10BD18000020D1
:100BE0001B000020B90A0000ED0B000010B5044600
:100BF00000F0A8F9034A214602209268BDE810409F
:100C0000104700001800002010B5074C207800287D
:100C100008BF10BD207900F05FF800F06BF9207973
:100C2000BDE8104000F080B80C00002010B5074C63
:100C30002078002808BF10BD207900F04DF800F0A2
:100C40007DF92079BDE8104000F06EB80C0000205E
:100C500010B5044600F074F90248012144600170A7
:100C6000084610BD0C00002003488268002A08BF17
:100C700070470021406810470000002010B508B1FF
:100C8000042801D9002010BD002914BF0021012132
:100C9000044A02EB800050F8040C00F0CDF901206A
:100CA00010BD00006818000070B50A4E012400BF96
:100CB00006EB8405012155F8040C00F0EDF955F818
:100CC000040C012100F0B8F9601CC4B2042CEFD967
:100CD000042070BD68180000002808BF7047042871
:100CE00088BF70470021034A02EB800050F8040CD3
:100CF00000F0A2B97818000070B50A4E012400BFB8
:100D000006EB8405012155F8040C00F0C5F955F8EF
:100D1000040C002100F090F9601CC4B2042CEFD93F
:100D2000042070BD78180000002808BF7047042810
:100D300088BF70470121034A02EB800050F8040C81
:100D400000F07AB97818000000F0BCB909480078C2
:100D5000002802BF00200146704710B500F0CEF910
:100D6000054A1268002A13BF002300200146FFF73E
:100D700063FA10BD000000206C00002010B503488D
:100D800000F0D6F902490120087010BD6C00002067
:100D9000000000200C4B93F800C0CCF1000C1CEAC2
:100DA000010F08BF704730B44FF47A74DFF81CC0ED
:100DB0006043DCF800C0C3E9012130BC0CFB00F04B
:100DC000034900F0EFB90000000000206C00002093
:100DD000690C000070B5174D064602202870642289
:100DE0000621002000F0CAFB0124E0B20021FFF739
:100DF00045FF641C042CF8DD002E18BF01240FD021
:100E0000E0B20121FFF73AFF641C042CF8DDD5E9BC
:100E100002018842D8BF70BD0749E860486070BDD4
:100E200001210846FFF72AFFBDE870400121042098
:100E3000FFF724BF380000205804002062B6704736
:100E400002490148086070473546526E000601406D
:100E50004FF0FF3101EBC030044908600120091D4B
:100E60000860091D086002490860704704050140D8
:100E700000000140044801214160044A11608A1EBB
:100E8000C0F808230160704700D0004004D500403E
:100E900016484FF0000C6246C0F800C1D0F80011AF
:100EA0000029FBD0124B1968C0F80021C9B241EAF1
:100EB0000C0C00BFD0F800110029FBD01968C0F855
:100EC0000021C9B24CEA012CD0F800110029FBD056
:100ED0001968C0F80021C9B24CEA014CD0F80011E1
:100EE0000029FBD018684CEA0060704700D0004031
:100EF00008D500400A494FF4F03008600A49094813
:100F00000860091D086009490860091D0860094951
:100F10000748086008490120086020BFFEE700007C
:100F2000080500500C0003002C070050600700501B
:100F300000180003200500500005004030BF704736
:100F4000704700000A490978884228BF704709495C
:100F500051F82000202828BF7047800000F1A040F1
:100F6000D0F8001721F44031C0F800177047000096
:100F700064180000541800000A490978884228BF04
:100F80007047094951F82000202828BF7047800089
:100F900000F1A040D0F8001741F44031C0F800172C
:100FA00070470000641800005418000012490860DF
:100FB000124900200A78002A84BFDFF844C00C23BD
:100FC0000DD900BF5CF82010202904D2890001F15E
:100FD000A041C1F80037401CC0B29042F2D3094989
:100FE0004FF00040C1F804034FF0E0204021C0F86A
:100FF00080128430C16770476400002064180000CC
:10100000541800000060004008490978884228BF51
:101010007047074951F82000202828BF7047012158
:1010200001FA00F0034908607047000064180000EE
:1010300054180000200500501F288CBF074A4FF0AD
:10104000A04200F01F00012303FA00F000290CBFAA
:10105000C2F80C05C2F808057047000000030050F4
:1010600002490020086002490860704714050050DA
:10107000140800501F288CBF06494FF0A04100F013
:101080001F000122D1F8101502FA00F0084018BF25
:1010900001207047000300501F288CBF084A4FF002
:1010A000A04200F01F00012303FA00F0002904BF52
:1010B000C2F81C057047012908BFC2F8180570471F
:1010C00000030050084A012108201060074A03204D
:1010D0001060074A00201060064B04221A601A1D97
:1010E00010600548016070471805005060C5014058
:1010F00004C501400CC5014000C50140094B10B4B6
:1011000001205864DFF820C0DCF80010074A14689A
:101110005864DCF80000884238BF1168002110BC18
:101120007047000000900040449500405C000020A3
:10113000164930B401224A60CA60DFF854C0002367
:10114000CCF80030134C4FF0030CC4F800C0DFF8AB
:1011500048C0CCF80030114C4FF0FF3CC4F800C040
:101160001404C1F804434FF0E0254C15C5F80041C4
:10117000C1F800220A4C23600A601021016020217E
:101180000171C0F808C030BC7047000000900040FA
:10119000049500400895004010950040409500409F
:1011A0005C000020F0B41B4B01225A604FF0E02598
:1011B00014024FF0000CC5F88041BFF34F8FBFF30E
:1011C0006F8F154E71605A60DA60C8B1134EC6F861
:1011D00000C0134F03263E60124EC6F800C0DFF871
:1011E00048C0401ECCF800001004C3F80403C3F844
:1011F000002200291FBFC5F800411A60F0BC7047EB
:101200005A60C5F88041BFF34F8FBFF36F8FF0BCBA
:1012100070470000008000405C0000200485004012
:10122000088500401085004040850040FFF7A6FD7E
:10123000FFF716FF0420FFF70BFDFFF75DFDFFF73B
:1012400083FDFFF731FD012000F0C4F8032000F01A
:10125000E9F801220849042000F0DAFA0423082200
:1012600002210548FFF796FC0020FFF717FCFFF767
:10127000CFFB00F00FF9FEE7E9120000184910B5A6
:101280004A680020086048608860C860086148615A
:101290008861C861086248628862C86208634863FE
:1012A0008863C8634A6001220A720E498860086137
:1012B0004A704FF47A724A61C91C01240870487060
:1012C0008870E0B20021FFF7D9FC641C042CF8DD23
:1012D00032220721BDE81040002000F04FB9000085
:1012E0005804002038000020184A1278002A08BF4D
:1012F00070472DE9F04160F307040D46FFF726FD26
:1013000006460F46FFF7B2FB114AD2F80C02401C0A
:10131000C2F80C02D2F80C02202806D992F800027A
:10132000FFF702FDFFF7ACFBFEE792F80802D2F8E8
:101330000C120844401E00F01F0002EB001080E871
:10134000F000BDE8F041FFF79BBB00001400002057
:10135000780000202DE9F05F14460D460646FFF7A1
:1013600085FB1B4BD3F80C0200282CD0D3F80802C5
:1013700003EB0011D1E9007AD1E90289C3F8040234
:10138000401C00F01F00C3F80802D3F80C02401EF6
:10139000C3F80C02D3F80C0200280CBF0120D3F8CC
:1013A0000C0200F0FF0BFFF76BFB002E18BF37702D
:1013B000002D18BFC5F800A0002C18BFC4E9008993
:1013C0005846BDE8F09FFFF75BFB0020BDE8F09FAB
:1013D0007800002006490022C1F80422C1F8082242
:1013E00081F80002C1F80C22024901200870704700
:1013F000780000201400002010B5022806D0032831
:1014000018BF10BDBDE81040FFF7FEBB002242F23E
:101410001071104600F0EEF90022BDE810400321E3
:1014200000F0ACB810B504460120FFF735FB1648B4
:1014300000210A460460154CFF23A4F5907C6254F9
:101440000CEB4110491C026003718260037302615E
:101450000375826103770929F1DB0D4A002103201E
:1014600000F056F80A4A0121022000F051F8084A1B
:101470000121062000F04CF80121BDE81040044A8B
:10148000072000F045B8000024000020A803002039
:10149000F9130000002286B042F21071104600F0ED
:1014A000A9F90022032100F069F8184D05F590769E
:1014B000FFF7DCFAFFF7EEFAFFF7E2FAFFF7D6FAEA
:1014C00004AA694602A8FFF745FFD0B1FFF7D8FA92
:1014D0009DF808000928EBD2305C00240028E7DDE5
:1014E0009DF8080005EB401151F83420002A1CBF7C
:1014F000009990479DF80800641C305CA042EFDC26
:10150000D6E7FFF7BDFAFFF791FBD1E7880200208D
:10151000092828BF7047002A08BF70472DE9F0410D
:10152000134E345C042C07D31248006800281CBFFB
:10153000C0B2FFF7F9FBFEE7DFF83CC023460CEB37
:10154000401C04E055E90278C5E900785B1E002BD9
:1015500005DD0CEBC30515F8047C8F42F2D84CF87E
:1015600033200CEBC3021171611C3154BDE8F081D2
:10157000A803002024000020880200202DE9F74F56
:10158000814986B001F11406DDE9078791F800E092
:10159000CDF810E00A7D039291F82820029291F88C
:1015A0003C20019291F85020009201F1280501F1B0
:1015B0003C0401F1500C91F864B001F1640391F81E
:1015C00078A001F1780211F88C9FBEF1000F0DD0C8
:1015D000DFF8B4E19EF80CE0C64507D1DFF8A8E1DA
:1015E000DEF810E0BE4508BF674F7CD0DDF80CE0A8
:1015F000BEF1000F0DD0DFF890E19EF820E0C64567
:1016000007D1DFF884E1DEF824E0BE4508BF3746A5
:101610006ED0DDF808E0BEF1000F0DD0DFF868E114
:101620009EF834E0C64507D1DFF85CE1DEF838E02B
:10163000BE4508BF2F465BD0DDF804E0BEF1000FC9
:101640000DD0DFF844E19EF848E0C64507D1DFF849
:1016500038E1DEF84CE0BE4508BF274648D0DDF84B
:1016600000E0BEF1000F0DD0DFF81CE19EF85CE059
:10167000C64507D1DFF810E1DEF860E0BE4508BFDF
:10168000674635D0BBF1000F0DD0DFF8FCE09EF8C7
:1016900070E0C64507D1DFF8F0E0DEF874E0BE4543
:1016A00008BF1F4624D0BAF1000F0DD0DFF8D8E0F4
:1016B0009EF884E0C64507D1DFF8CCE0DEF888E08C
:1016C000BE4508BF174613D0B9F1000F0FD0DFF8A1
:1016D000B8E09EF898E0C64509D1DFF8AC80D8F8AC
:1016E0009C80B84500E003E008BF0F4600D000270B
:1016F00008B13FB130E0002F1CBF0020387009B0A6
:10170000BDE8F08FDDF810801F4FB8F1000F08BF63
:1017100039461FD0039F002F08BF31461AD0029EC2
:10172000002E08BF294615D0019D002D08BF214677
:1017300010D0009C002C08BF61460BD0BBF1000FFD
:1017400008BF194606D0BAF1000F0CBF1146B9F117
:10175000000F10D10F000ED001213970C10F797028
:1017600020F07F407860B860079838730898386137
:1017700009B0BDE8F08F0548806800281CBFC0B2E2
:10178000FFF7D2FAFEE70000B40300202800002093
:101790002DE9F047DFF8548098F80010884218BF10
:1017A000BDE8F0870026124DB14600BF06EB860764
:1017B00015F8270030B105EB8704A06838B1401E4A
:1017C000A06004D0761C082EF0DBBDE8F087D8F8C6
:1017D000042012B1207B21699047607800281ABF4D
:1017E0006068A06005F82790ECE700002800002062
:1017F000B4030020030021F07F404FF0FE4101EAD6
:10180000026141EA000018BF40F00040704700004C
:1018100010B50D4C04234FF0000CC4E901100B4926
:101820001046227081F814C001F828CF5B1EF9D150
:10183000074A0021FFF76CFE22786168BDE810407E
:101840000120FFF7A7BA000028000020A003002015
:10185000911700000B0000000C00000018000000B1
:1018600019000000040000000D0000000E00000040
:101870000F000000100000001C0000001D00000010
:101880001E0000001F0000000B0000000C00000004
:101890001800000019000000B81800000000002027
:1018A0006C0000003C060000241900006C000020C1
:1018B0002C4400004C060000000000000000000066
:1018C0000000000000000000000000000000000018
:1018D0000000000000000000000000000000000008
:1018E00000000000000000000000000000000000F8
:1018F00000010100000000000000000000000000E6
:1019000000000000E80300000000000000000000EC
:1019100000000000000000000000000000000000C7
:041920000090D00360
:0400000500000201F4
:00000001FF
