:020000040000FA
:1000000008450020150200001D0200001F0200002C
:100010002102000023020000250200000000000071
:1000200000000000000000000000000027020000A7
:1000300029020000000000002B0200002D02000039
:100040002F0200002F0200002F0200002F020000EC
:100050002F0200002F020000FD0200002F0200000E
:10006000D9050000010600002F0200002F02000049
:100070002F0200002F0200002F0200002F020000BC
:100080002F0200002F0200002F0200002F020000AC
:100090002F0200002F0200002F0200002F0200009C
:1000A0002F0200002F0200002F0200002F0200008C
:1000B0002F0200002F0200000000000000000000DE
:1000C0002F0200002F0200002F0200002F0200006C
:1000D0002F0200002F0200002F0200002F0200005C
:1000E0002F0200002F0200002F020000000000007D
:1000F000000000002F020000000000002F0200009E
:1001000000000000000000000000000000000000EF
:1001100000000000000000000000000000000000DF
:1001200000000000000000000000000000000000CF
:1001300000000000000000000000000000000000BF
:1001400000000000000000000000000000000000AF
:10015000000000000000000000000000000000009F
:10016000000000000000000000000000000000008F
:10017000000000000000000000000000000000007F
:10018000000000000000000000000000000000006F
:10019000000000000000000000000000000000005F
:1001A000000000000000000000000000000000004F
:1001B000000000000000000000000000000000003F
:1001C000000000000000000000000000000000002F
:1001D000000000000000000000000000000000001F
:1001E000000000000000000000000000000000000F
:1001F00000000000000000000000000000000000FF
:10020000DFF80CD000F068F800480047DD1100006E
:10021000084500200648804706480047FEE7FEE7FD
:10022000FEE7FEE7FEE7FEE7FEE7FEE7FEE7FEE7A6
:1002300059030000010200002DE9F05F054600208F
:1002400092469B4688460646814640241BE0284647
:1002500041464746224600F02FF853465A46C01AF8
:10026000914110D311461846224600F016F82D1A77
:1002700067EB01084F4622460120002100F00DF8EF
:1002800017EB00094E41201EA4F10104DFDC4846B3
:1002900031462A464346BDE8F09F202A04DB203A37
:1002A00000FA02F1002070479140C2F1200320FAC9
:1002B00003F3194390407047202A04DB203A21FAC7
:1002C00002F00021704721FA02F3D040C2F120026F
:1002D0009140084319467047064C074D06E0E06818
:1002E00040F0010394E8070098471034AC42F6D37D
:1002F000FFF78AFFF81A0000181B00002DE9F047ED
:100300001148D0F87C1100291CD00021C0F87C11C4
:100310000E4E3568DFF83890DFF838800C4601273C
:1003200059F8240020280AD207FA00F0284206D003
:100330003060D8F8001000291CBFE0B28847641C68
:10034000042CEDD3BDE8F08700600040200500508C
:10035000E81A00009800002010B44FF080520023EB
:10036000D2E94C10082909D14FF0804CCCF80C315F
:10037000CCF81031DFF8D4C1CCF80030082965D1B1
:10038000734B1B68DFF8CCC1CCF80030724B1B6894
:100390000CF1040CCCF80030704B1B680CF1040C11
:1003A000CCF800306E4B1B680CF1040CCCF800301C
:1003B0006C4B1B680CF1040CCCF800306A4B1B68CA
:1003C0000CF1040CCCF80030684B1B68DFF8A0C1BE
:1003D000CCF80030674B1B680CF1040CCCF80030F3
:1003E000654B1B680CF1040CCCF80030634B1B68A8
:1003F0000CF1040CCCF80030614B1B680CF1040CC0
:10040000CCF800305F4B1B680CF1040CCCF80030CA
:100410005D4B1B68DFF874C1CCF800305C4B1B6887
:100420000CF1040CCCF800305A4B1B680CF1040C96
:10043000CCF80030584B1B680CF1040CCCF80030A1
:10044000564B1B680CF1040CCCF80030082908BF8F
:100450005FEA000304D1DFF84CC1514BCCF8003007
:10046000082908BF5FEA000304D1DFF83CC1FB2381
:10047000CCF80030082908BF5FEA000308D14B4BD5
:1004800092F85842D3F800C064F3030CC3F800C0DC
:10049000082908BF5FEA000305D1DFF814C14FF453
:1004A0000073CCF80030082907D14248016811F0E8
:1004B000010F1CBF6FF0010101603F48016841F46A
:1004C00070010160BFF34F8FBFF36F8FD2E94C1003
:1004D0004FF01022082905D1042803D9D2F80802C8
:1004E00036490860D2F8000210F0004F04BFD2F87D
:1004F000040210F0004F24D0314B01201860314825
:1005000001680029FCD04FF0120CC2F800C201684B
:100510000029FCD0C2F804C201680029FCD00021E7
:10052000196001680029FCD0BFF34F8F264801688D
:10053000264A01F4E06111430160BFF34F8F00BF11
:10054000FDE724492248086010BC70473805004088
:100550000404001020C50040080400100C04001022
:100560001004001014040010180400101C040010E3
:1005700040C500402004001024040010280400108E
:100580002C040010300400103404001060C500403A
:10059000380400103C040010400400104404001013
:1005A000488103008C56004018F50040E40E0040DE
:1005B000409602400004004088ED00E058050040ED
:1005C00004E5014000E401400CED00E00400FA0500
:1005D0000090D0039C000020074810B5D0F84011CF
:1005E000002907D00021C0F84011044840680028C5
:1005F00018BF804710BD0000008000409000002020
:100600000648D0F84011002906D00021C0F840115A
:1006100003480168491C01607047000000900040D9
:100620009000002002E008C8121F08C1002AFAD179
:1006300070477047002001E001C1121F002AFBD162
:10064000704700002DE9F047E64D07460C46287834
:1006500001280ED1022F18BF082F0AD14FF0000237
:1006600042F21071104601F02FF90022032100F030
:10067000C5FF28784FF0010810B34FF0000A012899
:100680006BD0022818BFBDE8F087022F00F08181EF
:10069000082F00F09781072F0CBF322CBDE8F087A0
:1006A00000F0CAFD85F800A0C8224FF4FA710020BE
:1006B00001F00AF9BDE8F047C822062100F09EBF0C
:1006C000062F2ED0022F18BFBDE8F087022C14BFD2
:1006D000032CBDE8F087002C1CBF012CBDE8F0877F
:1006E0004FF0C8024FF006014FF0000000F086FF07
:1006F0000124E0B2002100F0B5FA641C042CF8DDFE
:1007000085F8008000F098FD4FF47A716422002093
:10071000696101F0D9F8BDE8F0476422062100F0D4
:100720006DBFC82C18BFBDE8F0870021A87800F085
:1007300099FAA878012100F00300401CA87000F08D
:1007400091FAC8224FF4FA71002001F0BDF8BDE81B
:10075000F047C822062100F051BFDFF88C92A34E6B
:10076000022F0CD0062F0CBF642CBDE8F08728693F
:100770001E283BD3BDE8F047012000F01FBB022C30
:1007800018BF032C00F00081012C88BFBDE8F08762
:1007900008FA04F0C4B299F80000002818BF2042FB
:1007A00006D1A868A0F10100A860306000F0E1B8AF
:1007B00000F0C0FAD5E90623801A61EB03014FF47B
:1007C0007A720023FFF738FDF0626969002908BFDB
:1007D000D0467DD064225043B0FBF1F00A2878D88F
:1007E000306A401C30624FF0020896E0A86810F1B1
:1007F000050F6FDB99F8001039B1401EA86030601A
:100800007069401C7061C6F818A099F8010089F859
:10081000000099F8020089F80100642000F034F922
:100820006978012905D0022906D00F2809D20020B5
:1008300010E0322807D80CE01428F8D33C2802D363
:1008400007E02D2801D2012004E04B2828BF032017
:1008500000D2022089F8020000F00101012000F01E
:1008600001FA99F80200C0F34001022000F0FAF901
:1008700099F8010000F00101032000F0F3F999F864
:100880000100C0F34001042000F0ECF95849286948
:10089000A1FB00218908494201EB8101C14216D127
:1008A000A8B16878401CC0B26870042884BF0420D6
:1008B00068700BD395ED050AB8EE400ADFED4D0ADE
:1008C00020EE200ABCEEC00A85ED050A307202E077
:1008D00023E013E058E000F02DFAC5E9060128698D
:1008E000401C2861F06064220020696900F0ECFF80
:1008F000BDE8F0476422062100F080BE142803D82A
:10090000706A401C706208E0282888BF4FF0FF38EA
:1009100003D8B06A401CB062D046A8684044A860C2
:1009200099F80010A14389F800103060B8F1000F69
:100930001FDB3069401C3061B069401CB061B06998
:10094000F16988428CBFB069F069F061B16BF26BFC
:10095000F06AC317081842EB0301B063F163306912
:1009600060B13269B06BF16B0023FFF765FC306357
:1009700004E07069401C7061C6F818A0A86810F106
:10098000050FA8BFBDE8F0870020BDE8F04700F0E4
:1009900015BA022C1CBF032CBDE8F0874FF03202C1
:1009A0004FF007014FF0000000F028FE322240F621
:1009B000B831002000F088FFBDE8F047322207215F
:1009C00000F01CBE022C1CBF032CBDE8F0874FF0CA
:1009D0003202BDE8F0474FF007014FF0000000F091
:1009E0000DBE0000580000205B000020C80400205D
:1009F000CDCCCCCC6666663F134810B500210170A3
:100A0000C160124A0121062000F0C2FD0F4A0121F7
:100A1000022000F0BDFD0D4A0121082000F0B8FDC4
:100A20000A4A0121072000F0B3FD00F005FCC822AE
:100A30004FF4FA71002000F047FFC822BDE81040D3
:100A4000062100F0DBBD0000580000204506000034
:100A500072B6704710B5FFF7FBFF02490868421CE9
:100A60000A6010BD7800002003490868401E086035
:100A700018BF704700F0D6B97800002000F0D4B954
:100A800000F0DAB900F0EAB9002808BF704710B5E5
:100A9000044600F0F1F9B0FBF4F104FB110010BDC5
:100AA0002DE9F041CCB2042C28BFBDE8F081314ED5
:100AB000F51C02280DD0295D00272F4801291AD0E6
:100AC000022938D003291FD02046BDE8F04100F0AC
:100AD0003FBA285D002818BFBDE8F08122465021AA
:100AE000002000F0F1FE2246B17800F087FD0120E1
:100AF0002855BDE8F08150F8240000F093FA214613
:100B000058B1B26870789047204600F059FA2046F4
:100B100000F01EFA2F55BDE8F081B268307890479A
:100B200022463221012000F0CFFE2246B17800F0AB
:100B300065FD02201AE050F8240000F073FA002846
:100B400008BFBDE8F0812146B26870789047224620
:100B5000B178002000F052FD22463221002000F042
:100B6000B3FE2246B17800F049FD03202855BDE8C8
:100B7000F081000028000020D81A000010B51C46A3
:100B80000B4601460F488160037042700E4A847024
:100B90000020107050709070D07001460B4A1846BB
:100BA00000F0F6FC094A0021204600F0F1FC08485C
:100BB00000F0E2F90024204600F0CAF9641C042C7D
:100BC000F9DB10BD280000202B000020A10A000046
:100BD000D50B000010B5044600F0A8F9034A2146E1
:100BE00002209268BDE81040104700002800002055
:100BF00010B5074C2078002808BF10BD207900F000
:100C00005FF800F06BF92079BDE8104000F080B883
:100C10001000002010B5074C2078002808BF10BD38
:100C2000207900F04DF800F07DF92079BDE8104002
:100C300000F06EB81000002010B5044600F074F902
:100C40000248012144600170084610BD10000020D8
:100C500003488268002A08BF704700214068104797
:100C60000400002010B508B1042801D9002010BDEF
:100C7000002914BF00210121044A02EB800050F832
:100C8000040C00F0B1F9012010BD0000B81A0000FA
:100C900070B50A4E012400BF06EB8405012155F80A
:100CA000040C00F0D1F955F8040C012100F09CF976
:100CB000601CC4B2042CEFD9042070BDB81A000027
:100CC000002808BF7047042888BF70470021034AE6
:100CD00002EB800050F8040C00F086B9C81A00003E
:100CE00070B50A4E012400BF06EB8405012155F8BA
:100CF000040C00F0A9F955F8040C002100F074F977
:100D0000601CC4B2042CEFD9042070BDC81A0000C6
:100D1000002808BF7047042888BF70470121034A94
:100D200002EB800050F8040C00F05EB9C81A000015
:100D300000F0A0B909480078002802BF0020014651
:100D4000704710B500F0B2F9054A1268002A13BFC7
:100D5000002300200146FFF76FFA10BD04000020B9
:100D6000A000002010B5034800F0BAF902490120A4
:100D7000087010BDA0000020040000200C4B93F868
:100D800000C0CCF1000C1CEA010F08BF704730B462
:100D90004FF47A74DFF81CC06043DCF800C0C3E98C
:100DA000012130BC0CFB00F0034900F0D3B9000076
:100DB00004000020A0000020510C000070B5174D69
:100DC00006460220287064220621002000F016FC4E
:100DD0000124E0B20021FFF745FF641C042CF8DD7C
:100DE000002E18BF01240FD0E0B20121FFF73AFF17
:100DF000641C042CF8DDD5E902018842D8BF70BD1F
:100E00000749E860486070BD01210846FFF72AFFE6
:100E1000BDE8704001210420FFF724BF58000020E6
:100E2000C804002062B67047024901480860704754
:100E30003546526E000601404FF0FF3101EBC030E5
:100E4000044908600120091D0860091D0860024965
:100E5000086070470405014000000140044801217A
:100E60004160044A11608A1EC0F80823016070477F
:100E700000D0004004D5004016484FF0000C6246F8
:100E8000C0F800C1D0F800110029FBD0124B19683E
:100E9000C0F80021C9B241EA0C0C00BFD0F8001123
:100EA0000029FBD01968C0F80021C9B24CEA012C16
:100EB000D0F800110029FBD01968C0F80021C9B290
:100EC0004CEA014CD0F800110029FBD018684CEA1C
:100ED0000060704700D0004008D500400A494FF438
:100EE000F03008600A4909480860091D086009498E
:100EF0000860091D08600949074808600849012081
:100F0000086020BFFEE70000080500500C00030049
:100F10002C07005060070050001800032005005007
:100F20000005004030BF704770470000042828BF0C
:100F30007047064951F82000202828BF70470C212F
:100F4000800000F1A040C0F800177047E81A0000C8
:100F5000042828BF7047064951F82000202828BFE0
:100F600070470449800000F1A040C0F800177047A6
:100F7000E81A00000C0003000D4908600D490C2020
:100F8000C1F80007091DC1F800070B49C1F80007A7
:100F9000091DC1F8000709494007C1F804034FF0D3
:100FA000E0214020C1F880028431C867704700000A
:100FB000980000202C0000506000005000600040AD
:100FC000042828BF7047064951F82000202828BF70
:100FD0007047012101FA00F00249086070470000E3
:100FE000E81A0000200500501F288CBF074A4FF068
:100FF000A04200F01F00012303FA00F000290CBFFB
:10100000C2F80C05C2F80805704700000003005044
:10101000024900200860024908607047140500502A
:10102000140800501F288CBF06494FF0A04100F063
:101030001F000122D1F8101502FA00F0084018BF75
:1010400001207047000300501F288CBF084A4FF052
:10105000A04200F01F00012303FA00F0002904BFA2
:10106000C2F81C057047012908BFC2F8180570476F
:1010700000030050084A012108201060074A03209D
:101080001060074A00201060064B04221A601A1DE7
:1010900010600548016070471805005060C50140A8
:1010A00004C501400CC5014000C50140094B10B406
:1010B00001205864DFF820C0DCF80010074A1468EB
:1010C0005864DCF80000884238BF1168002110BC69
:1010D00070470000009000404495004090000020C0
:1010E000164930B401224A60CA60DFF854C00023B8
:1010F000CCF80030134C4FF0030CC4F800C0DFF8FC
:1011000048C0CCF80030114C4FF0FF3CC4F800C090
:101110001404C1F804434FF0E0254C15C5F8004114
:10112000C1F800220A4C23600A60102101602021CE
:101130000171C0F808C030BC70470000009000404A
:1011400004950040089500401095004040950040EF
:1011500090000020F0B41B4B01225A604FF0E025B4
:1011600014024FF0000CC5F88041BFF34F8FBFF35E
:101170006F8F154E71605A60DA60C8B1134EC6F8B1
:1011800000C0134F03263E60124EC6F800C0DFF8C1
:1011900048C0401ECCF800001004C3F80403C3F894
:1011A000002200291FBFC5F800411A60F0BC70473B
:1011B0005A60C5F88041BFF34F8FBFF36F8FF0BC0B
:1011C000704700000080004090000020048500402F
:1011D000088500401085004040850040FFF7C2FDB3
:1011E000FFF716FF0420FFF727FDFFF779FDFFF754
:1011F0009FFDFFF74DFD012000F0EEF8032000F009
:1012000015F900F09FFB0A490860012209490420F2
:1012100000F068FB0423082202210648FFF7AEFC19
:101220000020FFF72FFCFFF7E7FB00F037F9FEE7A0
:1012300000000020A5120000184910B54A680020DF
:10124000086048608860C860086148618861C8615A
:10125000086248628862C862086348638863C8633A
:101260004A6001220A720E49886008614A704FF490
:101270007A724A61C91C0124087048708870E0B213
:101280000021FFF7EFFC641C042CF8DD322207215B
:10129000BDE81040002000F0B1B90000C8040020F3
:1012A000580000202DE9F047254C054620780028FD
:1012B00008BFBDE8F08765F307070E46FFF73AFD64
:1012C00080468946FFF7C6FB1E4AD2F80C02401C36
:1012D000C2F80C02D2F80C0260606068A168884213
:1012E00094BFA0686068A060E068401CE060164899
:1012F000092D34BF50F82510416A01F1010134BFB6
:1013000040F825104162D2F80C02202806D992F844
:101310000002FFF7FDFCFFF7A7FBFEE792F80802CB
:10132000D2F80C120844401E00F01F0002EB00101F
:10133000C0E90076C0E90289BDE8F047FFF794BB39
:1013400018000020B0000020C00200202DE9F05F4E
:1013500014460D460646FFF77DFB1D4BD3F80C02E5
:10136000002830D0D3F8080203EB0011D1E9007A4D
:10137000D1E90289C3F80402401C00F01F00C3F841
:101380000802D3F80C02401EC3F80C02D3F80C027A
:1013900010494860D3F80C0200280CBF0120D3F894
:1013A0000C0200F0FF0BFFF75FFB002E18BF377039
:1013B000002D18BFC5F800A0002C18BFC4E9008993
:1013C0005846BDE8F09FFFF74FFB0020BDE8F09FB7
:1013D000B000002018000020074A0021C2F80412C3
:1013E000C2F8081282F80002C2F80C120348012267
:1013F0000270416081607047B0000020180000203A
:1014000010B5022806D0032818BF10BDBDE8104053
:10141000FFF7EEBB002242F21071104600F054FAC2
:101420000022BDE81040032100F0E8B810B50446E2
:101430000120FFF725FB164800210A468460154C61
:10144000FF23A4F5907C62540CEB4110491C026010
:101450000371826003730261037582610377092956
:10146000F1DB0D4A0021032000F092F80A4A012125
:10147000022000F08DF8084A0121062000F088F8CB
:101480000121BDE81040044A072000F081B80000A7
:10149000340000201C04002001140000002288B049
:1014A00042F21071104600F00FFA0022032100F002
:1014B000A5F8364FDFF8D08007F114064FF47A799B
:1014C00006F59075FFF7C6FAFFF7D8FAFFF7CCFAE2
:1014D000FFF7C0FA02AA694604A8FFF737FF002801
:1014E0004DD0FFF7C1FA029CFFF724FCD8F800109A
:1014F000001B884294BF0146D8F80010C8F80010BD
:10150000D8F8041088428CBF0146D8F80410C8F8F7
:101510000410B0FBF9F028B10A2807D27868401C03
:10152000786008E03868401C386004E032281CD23B
:10153000B868401CB8609DF810000928C2D2285C29
:1015400000240028BEDD00BF9DF8100006EB40110E
:1015500051F83420002A1CBF009990479DF81000D4
:10156000641C285CA042EFDCACE7642834BFF86858
:10157000386900F1010034BFF8603861DBE7FFF73C
:1015800073FAFFF747FB9DE734000020E8020020D4
:10159000092828BF7047002A08BF70472DE9F0418D
:1015A000134E345C042C07D31248806800281CBFFB
:1015B000C0B2FFF7ADFBFEE7DFF83CC023460CEB03
:1015C000401C04E055E90278C5E900785B1E002B59
:1015D00005DD0CEBC30515F8047C8F42F2D84CF8FE
:1015E00033200CEBC3021171611C3154BDE8F08152
:1015F0001C04002034000020FC0200202DE9F74FDD
:10160000924986B001F11406DDE9078791F800E000
:10161000CDF810E00A7D039291F82820029291F80B
:101620003C20019291F85020009201F1280501F12F
:101630003C0401F1500C91F864B001F1640391F89D
:1016400078A001F1780211F88C9FBEF1000F0DD047
:10165000DFF8F8E19EF80CE0C64507D1DFF8ECE1D1
:10166000DEF810E0BE4508BF784F7CD0DDF80CE016
:10167000BEF1000F0DD0DFF8D4E19EF820E0C645A2
:1016800007D1DFF8C8E1DEF824E0BE4508BF3746E1
:101690006ED0DDF808E0BEF1000F0DD0DFF8ACE150
:1016A0009EF834E0C64507D1DFF8A0E1DEF838E067
:1016B000BE4508BF2F465BD0DDF804E0BEF1000F49
:1016C0000DD0DFF888E19EF848E0C64507D1DFF885
:1016D0007CE1DEF84CE0BE4508BF274648D0DDF887
:1016E00000E0BEF1000F0DD0DFF860E19EF85CE095
:1016F000C64507D1DFF854E1DEF860E0BE4508BF1B
:10170000674635D0BBF1000F0DD0DFF840E19EF801
:1017100070E0C64507D1DFF834E1DEF874E0BE457D
:1017200008BF1F4624D0BAF1000F0DD0DFF81CE12E
:101730009EF884E0C64507D1DFF810E1DEF888E0C6
:10174000BE4508BF174613D0B9F1000F0FD0DFF820
:10175000FCE09EF898E0C64509D1DFF8F080D8F8A3
:101760009C80B84500E003E008BF0F4600D000278A
:10177000DFF8DC8078B127B301213970C10F7970AF
:1017800020F07F407860B860079838730898386117
:1017900009B0BDE8F08F002F04BF09B0BDE8F08F9D
:1017A00000203870D8F80400002804BF09B0BDE854
:1017B000F08FD8F80400401EC8F8040009B0BDE856
:1017C000F08FDDF810E0214FBEF1000F08BF394661
:1017D0001FD0039F002F08BF31461AD0029E002E53
:1017E00008BF294615D0019D002D08BF214610D005
:1017F000009C002C08BF61460BD0BBF1000F08BF56
:10180000194606D0BAF1000F0CBF1146B9F1000F0E
:1018100013D10F0011D0D8F80410491CC8F80410D7
:10182000D8F80410D8F80820914294BFD8F80810CE
:10183000D8F80410C8F808109EE7D8F8100000285F
:101840001CBFC0B2FFF764FAFEE7000028040020C6
:10185000400000202DE9F047DFF8648098F8001080
:10186000884218BFBDE8F0870027164DB94600BF73
:1018700007EB870615F82600E0B105EB8604A068A3
:1018800010B1401EA06015D1D8F80C2012B1207BF9
:1018900021699047607800281CBF6068A06009D16A
:1018A00005F82690D8F8040020B1D8F80400401EAE
:1018B000C8F804007F1C082FDADBBDE8F0870000C1
:1018C0004000002028040020030021F07F404FF05A
:1018D000FE4101EA026141EA000018BF40F0004009
:1018E0007047000010B50E4C0E4B4FF0040CC4E9CD
:1018F0000310104622700021197503F8281FBCF14F
:10190000010CF9D16160A160074A0021FFF740FE98
:101910002278E168BDE810400120FFF72FBA0000EF
:10192000400000201404002055180000044A5368A9
:101930005B1C5360C2E90201012010707047000077
:101940007C0000202DE9F041002582B00124E0B2A6
:101950000021FFF787F9641C042CF8DD0A20FFF74B
:10196000D7F97B210520FFF79DFC002201A96846DD
:10197000FFF7ECFC01260027002834D09DF800007A
:10198000052804BF01987B282DD14FF001014FF0AD
:101990000200FFF787FC02210820FFF783FC0321E8
:1019A0000420FFF77FFC002201A96846FFF7CEFC68
:1019B0009DF80000022816D1002201A96846FFF711
:1019C000C5FC9DF8000008280DD1002201A9684639
:1019D000FFF7BCFC9DF80000042804D10121084653
:1019E000FFF740F96D1C314C00970098401C0090A7
:1019F000A042FADB0C20FFF78BF9DFF8B4802D4A08
:101A00000121C8F8047088F800700520FFF7C0FDB8
:101A100040F22B210520FFF745FC002201A9684672
:101A2000FFF794FC60B1D8F804209DF800100198ED
:101A3000521CC8F80420C8E9021088F8006002E0CF
:101A400098F8000050B1D8F80C00A0F500712B39BF
:101A500004D101210220FFF705F96D1C00970098C1
:101A6000401C0090A042FADB01224FF4FA711046AC
:101A7000FFF72AFF10F0004F09D020F07F40B0F5AB
:101A8000FA7F04D101210320FFF7ECF86D1C0097C9
:101A90000098401C0090A042FADBFEF7DBFF0096A6
:101AA000FEF7E2FF02B0681CBDE8F081400D0300C4
:101AB0007C0000202D1900000D0000000E00000029
:101AC0000F000000100000001C0000001D000000BE
:101AD0001E0000001F0000000B0000000C000000B2
:101AE00018000000190000000B0000000C000000AE
:101AF0001800000019000000181B00000000002062
:101B0000A000000024060000B81B0000A000002078
:101B100068440000340600000000000000000000DF
:101B200000000000000000000000000000000000B5
:101B300000000000000000000000000000000000A5
:101B4000000000000000000000000000FFFFFFFF99
:101B50000000000000000000000000000000000085
:101B60000000000000000000000000000000000075
:101B70000001010000000000000000000000000063
:101B800000000000E803000000000000000000006A
:101B90000000000000000000000000000000000045
:101BA0000000000000000000000000000000000035
:081BB000000000000090D003CA
:0400000500000201F4
:00000001FF
