:020000040000FA
:10000000E8440020150200001D0200001F0200004D
:100010002102000023020000250200000000000071
:1000200000000000000000000000000027020000A7
:1000300029020000000000002B0200002D02000039
:100040002F0200002F0200002F0200002F020000EC
:100050002F0200002F020000FD0200002F0200000E
:10006000D9050000010600002F0200002F02000049
:100070002F0200002F0200002F0200002F020000BC
:100080002F0200002F0200002F0200002F020000AC
:100090002F0200002F0200002F0200002F0200009C
:1000A0002F0200002F0200002F0200002F0200008C
:1000B0002F0200002F0200000000000000000000DE
:1000C0002F0200002F0200002F0200002F0200006C
:1000D0002F0200002F0200002F0200002F0200005C
:1000E0002F0200002F0200002F020000000000007D
:1000F000000000002F020000000000002F0200009E
:1001000000000000000000000000000000000000EF
:1001100000000000000000000000000000000000DF
:1001200000000000000000000000000000000000CF
:1001300000000000000000000000000000000000BF
:1001400000000000000000000000000000000000AF
:10015000000000000000000000000000000000009F
:10016000000000000000000000000000000000008F
:10017000000000000000000000000000000000007F
:10018000000000000000000000000000000000006F
:10019000000000000000000000000000000000005F
:1001A000000000000000000000000000000000004F
:1001B000000000000000000000000000000000003F
:1001C000000000000000000000000000000000002F
:1001D000000000000000000000000000000000001F
:1001E000000000000000000000000000000000000F
:1001F00000000000000000000000000000000000FF
:10020000DFF80CD000F068F800480047F11100005A
:10021000E84400200648804706480047FEE7FEE71E
:10022000FEE7FEE7FEE7FEE7FEE7FEE7FEE7FEE7A6
:1002300059030000010200002DE9F05F054600208F
:1002400092469B4688460646814640241BE0284647
:1002500041464746224600F02FF853465A46C01AF8
:10026000914110D311461846224600F016F82D1A77
:1002700067EB01084F4622460120002100F00DF8EF
:1002800017EB00094E41201EA4F10104DFDC4846B3
:1002900031462A464346BDE8F09F202A04DB203A37
:1002A00000FA02F1002070479140C2F1200320FAC9
:1002B00003F3194390407047202A04DB203A21FAC7
:1002C00002F00021704721FA02F3D040C2F120026F
:1002D0009140084319467047064C074D06E0E06818
:1002E00040F0010394E8070098471034AC42F6D37D
:1002F000FFF78AFF74190000941900002DE9F047F8
:100300001148D0F87C1100291CD00021C0F87C11C4
:100310000E4E3568DFF83890DFF838800C4601273C
:1003200059F8240020280AD207FA00F0284206D003
:100330003060D8F8001000291CBFE0B28847641C68
:10034000042CEDD3BDE8F08700600040200500508C
:10035000641900007C00002010B44FF0805200238C
:10036000D2E94C10082909D14FF0804CCCF80C315F
:10037000CCF81031DFF8D4C1CCF80030082965D1B1
:10038000734B1B68DFF8CCC1CCF80030724B1B6894
:100390000CF1040CCCF80030704B1B680CF1040C11
:1003A000CCF800306E4B1B680CF1040CCCF800301C
:1003B0006C4B1B680CF1040CCCF800306A4B1B68CA
:1003C0000CF1040CCCF80030684B1B68DFF8A0C1BE
:1003D000CCF80030674B1B680CF1040CCCF80030F3
:1003E000654B1B680CF1040CCCF80030634B1B68A8
:1003F0000CF1040CCCF80030614B1B680CF1040CC0
:10040000CCF800305F4B1B680CF1040CCCF80030CA
:100410005D4B1B68DFF874C1CCF800305C4B1B6887
:100420000CF1040CCCF800305A4B1B680CF1040C96
:10043000CCF80030584B1B680CF1040CCCF80030A1
:10044000564B1B680CF1040CCCF80030082908BF8F
:100450005FEA000304D1DFF84CC1514BCCF8003007
:10046000082908BF5FEA000304D1DFF83CC1FB2381
:10047000CCF80030082908BF5FEA000308D14B4BD5
:1004800092F85842D3F800C064F3030CC3F800C0DC
:10049000082908BF5FEA000305D1DFF814C14FF453
:1004A0000073CCF80030082907D14248016811F0E8
:1004B000010F1CBF6FF0010101603F48016841F46A
:1004C00070010160BFF34F8FBFF36F8FD2E94C1003
:1004D0004FF01022082905D1042803D9D2F80802C8
:1004E00036490860D2F8000210F0004F04BFD2F87D
:1004F000040210F0004F24D0314B01201860314825
:1005000001680029FCD04FF0120CC2F800C201684B
:100510000029FCD0C2F804C201680029FCD00021E7
:10052000196001680029FCD0BFF34F8F264801688D
:10053000264A01F4E06111430160BFF34F8F00BF11
:10054000FDE724492248086010BC70473805004088
:100550000404001020C50040080400100C04001022
:100560001004001014040010180400101C040010E3
:1005700040C500402004001024040010280400108E
:100580002C040010300400103404001060C500403A
:10059000380400103C040010400400104404001013
:1005A000488103008C56004018F50040E40E0040DE
:1005B000409602400004004088ED00E058050040ED
:1005C00004E5014000E401400CED00E00400FA0500
:1005D0000090D00380000020074810B5D0F84011EB
:1005E000002907D00021C0F84011044840680028C5
:1005F00018BF804710BD000000800040740000203C
:100600000648D0F84011002906D00021C0F840115A
:1006100003480168491C01607047000000900040D9
:100620007400002002E008C8121F08C1002AFAD195
:1006300070477047002001E001C1121F002AFBD162
:10064000704700002DE9F047E44D04460E46287837
:1006500001280ED1022C18BF082C0AD14FF000023D
:1006600042F21071104601F033F90022032100F02C
:10067000C9FF28784FF0010910B34FF0000A012894
:100680006BD0022818BFBDE8F087022C00F07D81F6
:10069000082C00F09381072C0CBF322EBDE8F087A8
:1006A00000F0CEFD85F800A0C8224FF4FA710020BA
:1006B00001F00EF9BDE8F047C822062100F0A2BF04
:1006C000062C2ED0022C18BFBDE8F087022E14BFD6
:1006D000032EBDE8F087002E1CBF012EBDE8F08779
:1006E0004FF0C8024FF006014FF0000000F08AFF03
:1006F0000124E0B2002100F0B1FA641C042CF8DD02
:1007000085F8009000F09CFD4FF47A71642200207F
:10071000696101F0DDF8BDE8F0476422062100F0D0
:1007200071BFC82E18BFBDE8F0870021A87800F07F
:1007300095FAA878012100F00300401CA87000F091
:100740008DFAC8224FF4FA71002001F0C1F8BDE81B
:10075000F047C822062100F055BFDFF88482A14F80
:10076000022C0CD0062C0CBF642EBDE8F087286943
:100770001E283BD3BDE8F047012000F029BB022E24
:1007800018BF032E00F0FC80012E88BFBDE8F08763
:1007900009FA06F0C4B298F80000002818BF2042F9
:1007A00006D1A868A0F10100A860386000F0DDB8AB
:1007B00000F0BCFAD5E90623801A61EB03014FF47F
:1007C0007A720023FFF738FDF8626969002908BFD3
:1007D000D1467CD064225043B0FBF1F00A2877D890
:1007E000386A401C38624FF0020993E0A86810F1A3
:1007F000050F6EDB98F8000020B17869401C786125
:10080000C7F818A098F8010088F8000098F80200CE
:1008100088F80100642000F033F96978012905D0D7
:10082000022906D00F2809D2002010E0322807D86C
:100830000CE01428F8D33C2802D307E02D2801D27D
:10084000012004E04B2828BF032000D2022088F8B2
:10085000020000F00101012000F000FA98F8020007
:10086000C0F34001022000F0F9F998F8010000F00F
:100870000101032000F0F2F998F80100C0F34001F3
:10088000042000F0EBF958492869A1FB00218908F0
:10089000494201EB8101C14216D1A8B16878401CE0
:1008A000C0B26870042884BF042068700BD395ED33
:1008B000050AB8EE400ADFED4D0A20EE200ABCEE34
:1008C000C00A85ED050A387200F030FA02E021E036
:1008D00011E055E0C5E906012869401C2861F8606F
:1008E00064220020696900F0F3FFBDE8F04764224C
:1008F000062100F087BE142803D8786A401C78626D
:1009000008E0282888BF4FF0FF3903D8B86A401C98
:10091000B862D146A8684844A86098F80010A1437E
:1009200088F800103860B9F1000F1EDB3869401CF0
:100930003861B869401CB861B869F96988428CBFF0
:10094000B869F869F861BA6BF96BF86AC3171018DF
:100950005941B863F963386960B13A69B86BF96BAA
:100960000023FFF769FC386304E07869401C786174
:10097000C7F818A0A86810F1050FA8BFBDE8F08758
:100980000020BDE8F04700F023BA022E1CBF032E62
:10099000BDE8F0874FF032024FF007014FF0000042
:1009A00000F030FE322240F6B831002000F090FF17
:1009B000BDE8F0473222072100F024BE022E1CBF02
:1009C000032EBDE8F0874FF03202BDE8F0474FF04C
:1009D00007014FF0000000F015BE0000500000209D
:1009E00053000020A8040020CDCCCCCC6666663F26
:1009F000134810B500210170C160124A0121062080
:100A000000F0CAFD0F4A0121022000F0C5FD0D4A89
:100A10000121082000F0C0FD0A4A0121072000F052
:100A2000BBFD00F00DFCC8224FF4FA71002000F06D
:100A30004FFFC822BDE81040062100F0E3BD0000D2
:100A4000500000204506000072B6704710B5FFF751
:100A5000FBFF02490868421C0A6010BD70000020BC
:100A600003490868401E086018BF704700F0E4B9E9
:100A70007000002000F0E2B900F0E8B900F0F8B929
:100A8000002808BF704710B5044600F0FFF9B0FB1E
:100A9000F4F104FB110010BD2DE9F041CCB2042C9F
:100AA00028BFBDE8F081314EF51C02280DD0295D2C
:100AB00000272F4801291AD0022938D003291FD036
:100AC0002046BDE8F04100F04DBA285D002818BF6F
:100AD000BDE8F08122465021002000F0F9FE2246B8
:100AE000B17800F08FFD01202855BDE8F08150F865
:100AF000240000F0A1FA214658B1B26870789047FE
:100B0000204600F067FA204600F02CFA2F55BDE889
:100B1000F081B2683078904722463221012000F0FF
:100B2000D7FE2246B17800F06DFD02201AE050F8A1
:100B3000240000F081FA002808BFBDE8F0812146BA
:100B4000B268707890472246B178002000F05AFDD4
:100B500022463221002000F0BBFE2246B17800F090
:100B600051FD03202855BDE8F0810000240000203D
:100B70005419000010B51C460B4601460F48816011
:100B8000037042700E4A8470002010705070907094
:100B9000D07001460B4A184600F0FEFC094A0021BD
:100BA000204600F0F9FC084800F0F0F90024204647
:100BB00000F0D8F9641C042CF9DB10BD24000020DF
:100BC00027000020990A0000CD0B000010B5044654
:100BD00000F0B6F9034A214602209268BDE81040B1
:100BE000104700002400002010B5074C2078002892
:100BF00008BF10BD207900F05FF800F079F9207986
:100C0000BDE8104000F080B80C00002010B5074C83
:100C10002078002808BF10BD207900F04DF800F0C2
:100C20008BF92079BDE8104000F06EB80C00002070
:100C300010B5044600F082F90248012144600170B9
:100C4000084610BD0C00002003488268002A08BF37
:100C500070470021406810470000002010B508B11F
:100C6000042801D9002010BD002914BF0021012152
:100C7000044A02EB800050F8040C00F0BFF9012098
:100C800010BD00003419000070B50A4E012400BFE9
:100C900006EB8405012155F8040C00F0DFF955F846
:100CA000040C012100F0AAF9601CC4B2042CEFD995
:100CB000042070BD34190000002808BF70470428C4
:100CC00088BF70470021034A02EB800050F8040CF3
:100CD00000F094B94419000070B50A4E012400BF19
:100CE00006EB8405012155F8040C00F0B7F955F81E
:100CF000040C002100F082F9601CC4B2042CEFD96E
:100D0000042070BD44190000002808BF7047042863
:100D100088BF70470121034A02EB800050F8040CA1
:100D200000F06CB94419000000F0AEB9084810B5E5
:100D3000007848B1074C206830B100F0C1F90023B9
:100D40002268FFF779FA10BD0020014610BD0000AF
:100D5000000000208400002010B5034800F0CAF90C
:100D600002490120087010BD84000020000000200E
:100D7000F0B4144B93F800C0CCF1000C1CEA010F46
:100D800004BFF0BC7047DFF840C04FF47A7600250E
:100D9000DCF800C0A0FB0CC4ACFB060704FB067427
:100DA0000CFB054CD0F1FF3475EB0C0C06D300BFE7
:100DB000C3E90121F0BC054900F0D6B94FF0FF307E
:100DC000F6E700000000002084000020490C00002D
:100DD00070B5174D064602202870642206210020B7
:100DE00000F010FC0124E0B20021FFF737FF641C83
:100DF000042CF8DD002E18BF01240FD0E0B2012131
:100E0000FFF72CFF641C042CF8DDD5E902018842B1
:100E1000D8BF70BD0749E860486070BD0121084631
:100E2000FFF71CFFBDE8704001210420FFF716BF4B
:100E300050000020A804002062B670470249014813
:100E4000086070473546526E000601404FF0FF3192
:100E500001EBC030044908600120091D0860091D2C
:100E60000860024908607047040501400000014025
:100E7000044801214160044A11608A1EC0F8082319
:100E80000160704700D0004004D5004016484FF084
:100E9000000C6246C0F800C1D0F800110029FBD058
:100EA000124B1968C0F80021C9B241EA0C0C00BF0E
:100EB000D0F800110029FBD01968C0F80021C9B290
:100EC0004CEA012CD0F800110029FBD01968C0F8B9
:100ED0000021C9B24CEA014CD0F800110029FBD026
:100EE00018684CEA0060704700D0004008D5004008
:100EF0000A494FF4F03008600A4909480860091DA2
:100F0000086009490860091D086009490748086028
:100F100008490120086020BFFEE7000008050050D6
:100F20000C0003002C07005060070050001800035D
:100F3000200500500005004030BF7047704700009A
:100F4000042828BF7047064951F82000202828BFF0
:100F500070470C21800000F1A040C0F800177047D6
:100F600064190000042828BF7047064951F8200082
:100F7000202828BF70470449800000F1A040C0F835
:100F800000177047641900000C0003000D49086049
:100F90000D490C20C1F80007091DC1F800070B49D5
:100FA000C1F80007091DC1F8000709494007C1F849
:100FB00004034FF0E0214020C1F88002C1F8000195
:100FC000704700007C0000202C00005060000050A2
:100FD00000600040042828BF7047064951F82000EF
:100FE000202828BF7047012101FA00F0024908605B
:100FF0007047000064190000200500501F288CBFB6
:10100000074A4FF0A04200F01F00012303FA00F04E
:1010100000290CBFC2F80C05C2F808057047000093
:101020000003005002490020086002490860704730
:1010300014050050140800501F288CBF06494FF0BB
:10104000A04100F01F000122D1F8101502FA00F0B3
:10105000084018BF01207047000300501F288CBFB4
:10106000084A4FF0A04200F01F00012303FA00F0ED
:10107000002904BFC2F81C057047012908BFC2F847
:101080001805704700030050084A0121082010602D
:10109000074A03201060074A00201060064B042214
:1010A0001A601A1D1060054801607047180500504D
:1010B00060C5014004C501400CC5014000C50140A8
:1010C000094B10B401205864DFF820C0DCF8001090
:1010D000074A14685864DCF80000884238BF116879
:1010E000002110BC70470000009000404495004073
:1010F00074000020164930B401224A60CA60DFF84B
:1011000054C00023CCF80030134C4FF0030CC4F84B
:1011100000C0DFF848C0CCF80030114C4FF0FF3C65
:10112000C4F800C01404C1F804434FF0E0254C1586
:10113000C5F80041C1F800220A4C23600A60102162
:10114000016020210171C0F808C030BC7047000068
:101150000090004004950040089500401095004024
:101160004095004074000020F0B41B4B01225A60EF
:101170004FF0E02514024FF0000CC5F88041BFF39A
:101180004F8FBFF36F8F154E71605A60DA60C8B130
:10119000134EC6F800C0134F03263E60124EC6F829
:1011A00000C0DFF848C0401ECCF800001004C3F8AF
:1011B0000403C3F8002200291FBFC5F800411A60CC
:1011C000F0BC70475A60C5F88041BFF34F8FBFF342
:1011D0006F8FF0BC7047000000800040740000205A
:1011E000048500400885004010850040408500408F
:1011F000FFF7B2FDFFF716FF0420FFF719FDFFF719
:101200006BFDFFF791FDFFF73FFD012000F0E8F8CF
:10121000032000F00FF901220849022000F066FBCC
:101220000423082202210548FFF7A4FC0020FFF751
:1012300025FCFFF7DDFB00F035F9FEE7AD120000FD
:10124000184910B54A680020086048608860C86086
:10125000086148618861C861086248628862C86242
:10126000086348638863C8634A6001220A720E49B2
:10127000886008614A704FF47A724A61C91C01247F
:10128000087048708870E0B20021FFF7E7FC641C2A
:10129000042CF8DD32220721BDE81040002000F0C8
:1012A000B1B90000A8040020500000202DE9F0474B
:1012B000254C05462078002808BFBDE8F08765F377
:1012C00007070E46FFF732FD80468946FFF7BEFB53
:1012D0001E4AD2F80C02401CC2F80C02D2F80C02D2
:1012E00060606068A168884294BFA0686068A06080
:1012F000E068401CE0601648092D34BF50F8251006
:10130000416A01F1010134BF40F825104162D2F871
:101310000C02202806D992F80002FFF7F5FCFFF72F
:101320009FFBFEE792F80802D2F80C120844401E18
:1013300000F01F0002EB0010C0E90076C0E902894E
:10134000BDE8F047FFF78CBB1400002090000020A0
:10135000A00200202DE9F05F14460D460646FFF777
:1013600075FB1D4BD3F80C02002830D0D3F80802CF
:1013700003EB0011D1E9007AD1E90289C3F8040234
:10138000401C00F01F00C3F80802D3F80C02401EF6
:10139000C3F80C02D3F80C0210494860D3F80C02D1
:1013A00000280CBF0120D3F80C0200F0FF0BFFF760
:1013B00057FB002E18BF3770002D18BFC5F800A0CE
:1013C000002C18BFC4E900895846BDE8F09FFFF71C
:1013D00047FB0020BDE8F09F900000201400002093
:1013E000074A0021C2F80412C2F8081282F800026B
:1013F000C2F80C12034801220270416081607047FC
:10140000900000201400002010B5022806D0032808
:1014100018BF10BDBDE81040FFF7E6BB002242F246
:101420001071104600F054FA0022BDE8104003216C
:1014300000F0E8B810B504460120FFF71DFB164880
:1014400000210A468460154CFF23A4F5907C625469
:101450000CEB4110491C026003718260037302614E
:101460000375826103770929F1DB0D4A002103200E
:1014700000F092F80A4A0121022000F08DF8084A93
:101480000121062000F088F80121BDE81040044A3F
:10149000072000F081B8000030000020FC0300208D
:1014A00009140000002288B042F21071104600F0CA
:1014B0000FFA0022032100F0A5F8364FDFF8D080A4
:1014C00007F114064FF47A7906F59075FFF7BEFA26
:1014D000FFF7D0FAFFF7C4FAFFF7B8FA02AA694695
:1014E00004A8FFF737FF00284DD0FFF7B9FA029C98
:1014F000FFF71CFCD8F80010001B884294BF01467F
:10150000D8F80010C8F80010D8F8041088428CBF32
:101510000146D8F80410C8F80410B0FBF9F028B15F
:101520000A2807D27868401C786008E03868401CB8
:10153000386004E032281CD2B868401CB8609DF8BE
:1015400010000928C2D2285C00240028BEDD00BF9C
:101550009DF8100006EB401151F83420002A1CBF02
:10156000009990479DF81000641C285CA042EFDCB5
:10157000ACE7642834BFF868386900F1010034BF73
:10158000F8603861DBE7FFF76BFAFFF73FFB9DE799
:1015900030000020C8020020092828BF7047002A18
:1015A00008BF70472DE9F041134E345C042C07D37B
:1015B0001248806800281CBFC0B2FFF7A5FBFEE7F9
:1015C000DFF83CC023460CEB401C04E055E90278F0
:1015D000C5E900785B1E002B05DD0CEBC30515F893
:1015E000047C8F42F2D84CF833200CEBC30211710B
:1015F000611C3154BDE8F081FC0300203000002064
:10160000DC0200202DE9F74F924986B001F1140663
:10161000DDE9078791F800E0CDF810E00A7D03923C
:1016200091F82820029291F83C20019291F85020E4
:10163000009201F1280501F13C0401F1500C91F8F0
:1016400064B001F1640391F878A001F1780211F817
:101650008C9FBEF1000F0DD0DFF8F8E19EF80CE092
:10166000C64507D1DFF8ECE1DEF810E0BE4508BF63
:10167000784F7CD0DDF80CE0BEF1000F0DD0DFF824
:10168000D4E19EF820E0C64507D1DFF8C8E1DEF8D6
:1016900024E0BE4508BF37466ED0DDF808E0BEF155
:1016A000000F0DD0DFF8ACE19EF834E0C64507D15D
:1016B000DFF8A0E1DEF838E0BE4508BF2F465BD07A
:1016C000DDF804E0BEF1000F0DD0DFF888E19EF8F0
:1016D00048E0C64507D1DFF87CE1DEF84CE0BE45C6
:1016E00008BF274648D0DDF800E0BEF1000F0DD05E
:1016F000DFF860E19EF85CE0C64507D1DFF854E111
:10170000DEF860E0BE4508BF674635D0BBF1000F8C
:101710000DD0DFF840E19EF870E0C64507D1DFF854
:1017200034E1DEF874E0BE4508BF1F4624D0BAF1AC
:10173000000F0DD0DFF81CE19EF884E0C64507D10C
:10174000DFF810E1DEF888E0BE4508BF174613D089
:10175000B9F1000F0FD0DFF8FCE09EF898E0C64525
:1017600009D1DFF8F080D8F89C80B84500E003E0AC
:1017700008BF0F4600D00027DFF8DC8078B127B320
:1017800001213970C10F797020F07F407860B86016
:10179000079838730898386109B0BDE8F08F002FBA
:1017A00004BF09B0BDE8F08F00203870D8F80400FD
:1017B000002804BF09B0BDE8F08FD8F80400401E2F
:1017C000C8F8040009B0BDE8F08FDDF810E0214F43
:1017D000BEF1000F08BF39461FD0039F002F08BF7E
:1017E00031461AD0029E002E08BF294615D0019D11
:1017F000002D08BF214610D0009C002C08BF614678
:101800000BD0BBF1000F08BF194606D0BAF1000F8C
:101810000CBF1146B9F1000F13D10F0011D0D8F849
:101820000410491CC8F80410D8F80410D8F808208F
:10183000914294BFD8F80810D8F80410C8F80810DE
:101840009EE7D8F8100000281CBFC0B2FFF75CFA72
:10185000FEE70000080400203C0000202DE9F047CE
:10186000DFF8648098F80010884218BFBDE8F08760
:101870000027164DB94600BF07EB870615F826006E
:10188000E0B105EB8604A06810B1401EA06015D140
:10189000D8F80C2012B1207B21699047607800288D
:1018A0001CBF6068A06009D105F82690D8F8040034
:1018B00020B1D8F80400401EC8F804007F1C082F8F
:1018C000DADBBDE8F08700003C00002008040020BF
:1018D000030021F07F404FF0FE4101EA026141EA3E
:1018E000000018BF40F000407047000010B50E4CDB
:1018F0000E4B4FF0040CC4E9031010462270002177
:10190000197503F8281FBCF1010CF9D16160A160C1
:10191000074A0021FFF740FE2278E168BDE8104049
:101920000120FFF725BA00003C000020F40300204E
:101930005D1800000D0000000E0000000F00000008
:10194000100000001C0000001D0000001E00000030
:101950001F0000000B0000000C0000001800000039
:10196000190000000B0000000C000000180000002F
:1019700019000000941900000000002084000000FD
:1019800024060000181A00008400002064440000AF
:10199000340600000000000000000000000000000D
:1019A0000000000000000000000000000000000037
:1019B0000000000000000000000000000000000027
:1019C00000000000FFFFFFFF00000000000000001B
:1019D0000000000000000000000000000000000007
:1019E00000000000000101000000000000000000F5
:1019F0000000000000000000E803000000000000FC
:101A000000000000000000000000000000000000D6
:081A1000000000000090D0036B
:0400000500000201F4
:00000001FF
